{
  "_format": "hh-sol-artifact-1",
  "contractName": "AirBnB",
  "sourceName": "contracts/airbnb.sol",
  "abi": [
    {
      "inputs": [],
      "stateMutability": "nonpayable",
      "type": "constructor"
    },
    {
      "inputs": [],
      "name": "owner",
      "outputs": [
        {
          "internalType": "address payable",
          "name": "",
          "type": "address"
        }
      ],
      "stateMutability": "view",
      "type": "function"
    },
    {
      "inputs": [
        {
          "internalType": "uint256",
          "name": "id",
          "type": "uint256"
        },
        {
          "internalType": "string",
          "name": "homeOwner",
          "type": "string"
        },
        {
          "internalType": "string",
          "name": "requester",
          "type": "string"
        }
      ],
      "name": "reserve",
      "outputs": [],
      "stateMutability": "payable",
      "type": "function"
    },
    {
      "inputs": [
        {
          "internalType": "uint256",
          "name": "id",
          "type": "uint256"
        }
      ],
      "name": "unreserve",
      "outputs": [],
      "stateMutability": "nonpayable",
      "type": "function"
    },
    {
      "inputs": [
        {
          "internalType": "uint256",
          "name": "id",
          "type": "uint256"
        }
      ],
      "name": "viewReservation",
      "outputs": [
        {
          "components": [
            {
              "internalType": "bool",
              "name": "exists",
              "type": "bool"
            },
            {
              "internalType": "string",
              "name": "owner",
              "type": "string"
            },
            {
              "internalType": "string",
              "name": "requester",
              "type": "string"
            }
          ],
          "internalType": "struct AirBnB.Reservation",
          "name": "res",
          "type": "tuple"
        }
      ],
      "stateMutability": "view",
      "type": "function"
    }
  ],
  "bytecode": "0x608060405234801561001057600080fd5b50336000806101000a81548173ffffffffffffffffffffffffffffffffffffffff021916908373ffffffffffffffffffffffffffffffffffffffff160217905550610d4e806100606000396000f3fe60806040526004361061003f5760003560e01c806332435cb71461004457806376b5d926146100815780638da5cb5b146100aa578063c11b3d57146100d5575b600080fd5b34801561005057600080fd5b5061006b60048036038101906100669190610552565b6100f1565b6040516100789190610681565b60405180910390f35b34801561008d57600080fd5b506100a860048036038101906100a39190610552565b6102c7565b005b3480156100b657600080fd5b506100bf6103d2565b6040516100cc91906106e4565b60405180910390f35b6100ef60048036038101906100ea9190610834565b6103f6565b005b6100f96104e5565b600115156001600084815260200190815260200160002060000160009054906101000a900460ff16151514610163576040517f08c379a000000000000000000000000000000000000000000000000000000000815260040161015a9061091c565b60405180910390fd5b600160008381526020019081526020016000206040518060600160405290816000820160009054906101000a900460ff161515151581526020016001820180546101ac9061096b565b80601f01602080910402602001604051908101604052809291908181526020018280546101d89061096b565b80156102255780601f106101fa57610100808354040283529160200191610225565b820191906000526020600020905b81548152906001019060200180831161020857829003601f168201915b5050505050815260200160028201805461023e9061096b565b80601f016020809104026020016040519081016040528092919081815260200182805461026a9061096b565b80156102b75780601f1061028c576101008083540402835291602001916102b7565b820191906000526020600020905b81548152906001019060200180831161029a57829003601f168201915b5050505050815250509050919050565b600115156001600083815260200190815260200160002060000160009054906101000a900460ff16151514610331576040517f08c379a000000000000000000000000000000000000000000000000000000000815260040161032890610a0e565b60405180910390fd5b6040518060600160405280600015158152602001604051806020016040528060008152508152602001604051806020016040528060008152508152506001600083815260200190815260200160002060008201518160000160006101000a81548160ff02191690831515021790555060208201518160010190816103b59190610bda565b5060408201518160020190816103cb9190610bda565b5090505050565b60008054906101000a900473ffffffffffffffffffffffffffffffffffffffff1681565b600115156001600085815260200190815260200160002060000160009054906101000a900460ff16151503610460576040517f08c379a000000000000000000000000000000000000000000000000000000000815260040161045790610cf8565b60405180910390fd5b6040518060600160405280600115158152602001838152602001828152506001600085815260200190815260200160002060008201518160000160006101000a81548160ff02191690831515021790555060208201518160010190816104c69190610bda565b5060408201518160020190816104dc9190610bda565b50905050505050565b604051806060016040528060001515815260200160608152602001606081525090565b6000604051905090565b600080fd5b600080fd5b6000819050919050565b61052f8161051c565b811461053a57600080fd5b50565b60008135905061054c81610526565b92915050565b60006020828403121561056857610567610512565b5b60006105768482850161053d565b91505092915050565b60008115159050919050565b6105948161057f565b82525050565b600081519050919050565b600082825260208201905092915050565b60005b838110156105d45780820151818401526020810190506105b9565b60008484015250505050565b6000601f19601f8301169050919050565b60006105fc8261059a565b61060681856105a5565b93506106168185602086016105b6565b61061f816105e0565b840191505092915050565b6000606083016000830151610642600086018261058b565b506020830151848203602086015261065a82826105f1565b9150506040830151848203604086015261067482826105f1565b9150508091505092915050565b6000602082019050818103600083015261069b818461062a565b905092915050565b600073ffffffffffffffffffffffffffffffffffffffff82169050919050565b60006106ce826106a3565b9050919050565b6106de816106c3565b82525050565b60006020820190506106f960008301846106d5565b92915050565b600080fd5b600080fd5b7f4e487b7100000000000000000000000000000000000000000000000000000000600052604160045260246000fd5b610741826105e0565b810181811067ffffffffffffffff821117156107605761075f610709565b5b80604052505050565b6000610773610508565b905061077f8282610738565b919050565b600067ffffffffffffffff82111561079f5761079e610709565b5b6107a8826105e0565b9050602081019050919050565b82818337600083830152505050565b60006107d76107d284610784565b610769565b9050828152602081018484840111156107f3576107f2610704565b5b6107fe8482856107b5565b509392505050565b600082601f83011261081b5761081a6106ff565b5b813561082b8482602086016107c4565b91505092915050565b60008060006060848603121561084d5761084c610512565b5b600061085b8682870161053d565b935050602084013567ffffffffffffffff81111561087c5761087b610517565b5b61088886828701610806565b925050604084013567ffffffffffffffff8111156108a9576108a8610517565b5b6108b586828701610806565b9150509250925092565b600082825260208201905092915050565b7f54686973207265736572766174696f6e20646f6573206e6f742065786973742e600082015250565b60006109066020836108bf565b9150610911826108d0565b602082019050919050565b60006020820190508181036000830152610935816108f9565b9050919050565b7f4e487b7100000000000000000000000000000000000000000000000000000000600052602260045260246000fd5b6000600282049050600182168061098357607f821691505b6020821081036109965761099561093c565b5b50919050565b7f43616e6e6f7420756e72657365727665206120686f6d6520746861742068617360008201527f6e277420616c7265616479206265656e2072657365727665642e000000000000602082015250565b60006109f8603a836108bf565b9150610a038261099c565b604082019050919050565b60006020820190508181036000830152610a27816109eb565b9050919050565b60008190508160005260206000209050919050565b60006020601f8301049050919050565b600082821b905092915050565b600060088302610a907fffffffffffffffffffffffffffffffffffffffffffffffffffffffffffffffff82610a53565b610a9a8683610a53565b95508019841693508086168417925050509392505050565b6000819050919050565b6000610ad7610ad2610acd8461051c565b610ab2565b61051c565b9050919050565b6000819050919050565b610af183610abc565b610b05610afd82610ade565b848454610a60565b825550505050565b600090565b610b1a610b0d565b610b25818484610ae8565b505050565b5b81811015610b4957610b3e600082610b12565b600181019050610b2b565b5050565b601f821115610b8e57610b5f81610a2e565b610b6884610a43565b81016020851015610b77578190505b610b8b610b8385610a43565b830182610b2a565b50505b505050565b600082821c905092915050565b6000610bb160001984600802610b93565b1980831691505092915050565b6000610bca8383610ba0565b9150826002028217905092915050565b610be38261059a565b67ffffffffffffffff811115610bfc57610bfb610709565b5b610c06825461096b565b610c11828285610b4d565b600060209050601f831160018114610c445760008415610c32578287015190505b610c3c8582610bbe565b865550610ca4565b601f198416610c5286610a2e565b60005b82811015610c7a57848901518255600182019150602085019450602081019050610c55565b86831015610c975784890151610c93601f891682610ba0565b8355505b6001600288020188555050505b505050505050565b7f49742068617320616c7265616479206265656e20726573657276656421000000600082015250565b6000610ce2601d836108bf565b9150610ced82610cac565b602082019050919050565b60006020820190508181036000830152610d1181610cd5565b905091905056fea2646970667358221220686d1e8789fa8afd631cb1460d97184ec604bba20e812d3322da820679ab5c6d64736f6c63430008110033",
  "linkReferences": {},
  "deployedLinkReferences": {}
}